{"abi":[{"type":"function","name":"advanceNonce","inputs":[{"name":"series","type":"uint256","internalType":"uint256"},{"name":"amount","type":"uint256","internalType":"uint256"}],"outputs":[],"stateMutability":"nonpayable"},{"type":"function","name":"increaseNonce","inputs":[{"name":"series","type":"uint8","internalType":"uint8"}],"outputs":[],"stateMutability":"nonpayable"},{"type":"function","name":"nonce","inputs":[{"name":"series","type":"uint256","internalType":"uint256"},{"name":"maker","type":"address","internalType":"address"}],"outputs":[{"name":"nonce","type":"uint256","internalType":"uint256"}],"stateMutability":"view"},{"type":"function","name":"nonceEquals","inputs":[{"name":"series","type":"uint256","internalType":"uint256"},{"name":"makerAddress","type":"address","internalType":"address"},{"name":"makerNonce","type":"uint256","internalType":"uint256"}],"outputs":[{"name":"","type":"bool","internalType":"bool"}],"stateMutability":"view"},{"type":"function","name":"timestampBelow","inputs":[{"name":"time","type":"uint256","internalType":"uint256"}],"outputs":[{"name":"","type":"bool","internalType":"bool"}],"stateMutability":"view"},{"type":"function","name":"timestampBelowAndNonceEquals","inputs":[{"name":"timeNonceSeriesAccount","type":"uint256","internalType":"uint256"}],"outputs":[{"name":"","type":"bool","internalType":"bool"}],"stateMutability":"view"},{"type":"event","name":"NonceIncreased","inputs":[{"name":"maker","type":"address","indexed":true,"internalType":"address"},{"name":"series","type":"uint256","indexed":false,"internalType":"uint256"},{"name":"newNonce","type":"uint256","indexed":false,"internalType":"uint256"}],"anonymous":false},{"type":"error","name":"AdvanceNonceFailed","inputs":[]}],"bytecode":{"object":"0x60808060405234610016576102d8908161001b8239f35b5f80fdfe60406080815260049081361015610014575f80fd5b5f3560e01c80632cc2878d146102215780634a7f2a4b146101e35780635d3a09dc1461014957806363592c2b1461012a5780637a37dc2c146100b05763976222211461005e575f80fd5b346100ac5760603660031901126100ac576100a360209261007d61028c565b60443591355f525f60205260405f209060018060a01b03165f5260205260405f20541490565b90519015158152f35b5f80fd5b5090346100ac57602090816003193601126100ac57359160ff83168093036100ac577fdc0537f71d06d3708f52baf4ddf6918b25f1a145ba08873de27485682b35cac191835f525f8152815f20335f5281526001825f20540190845f525f8152825f20335f52815281835f205582519485528401523392a2005b5090346100ac5760203660031901126100ac5760209151903542108152f35b50346100ac57806003193601126100ac5781359160243590811580156101d9575b6101cb5750907fdc0537f71d06d3708f52baf4ddf6918b25f1a145ba08873de27485682b35cac191835f525f602052815f20335f52602052815f205401835f525f602052815f20335f5260205280825f2055815193845260208401523392a2005b825163bd71636d60e01b8152fd5b5060ff821161016a565b50346100ac57806003193601126100ac576020916101ff61028c565b90355f525f8352815f209060018060a01b03165f528252805f20549051908152f35b50346100ac5760203660031901126100ac5760209135908160d81c4210918261024e575b50519015158152f35b60a081901c61ffff165f908152602081815260408083206001600160a01b038516845290915290205491925060b01c64ffffffffff1614905f610245565b602435906001600160a01b03821682036100ac5756fea26469706673582212205474b5a411e3fab5c788dc08ceba31b52ef222e1a9ae1ae20d174460acd3534064736f6c63430008170033","linkReferences":{}},"methodIdentifiers":{"advanceNonce(uint256,uint256)":"5d3a09dc","increaseNonce(uint8)":"7a37dc2c","nonce(uint256,address)":"4a7f2a4b","nonceEquals(uint256,address,uint256)":"97622221","timestampBelow(uint256)":"63592c2b","timestampBelowAndNonceEquals(uint256)":"2cc2878d"},"id":81}