{"abi":[{"type":"constructor","inputs":[{"name":"limitOrderProtocol","type":"address","internalType":"contract IOrderMixin"}],"stateMutability":"nonpayable"},{"type":"function","name":"registerOrder","inputs":[{"name":"order","type":"tuple","internalType":"struct IOrderMixin.Order","components":[{"name":"salt","type":"uint256","internalType":"uint256"},{"name":"maker","type":"uint256","internalType":"Address"},{"name":"receiver","type":"uint256","internalType":"Address"},{"name":"makerAsset","type":"uint256","internalType":"Address"},{"name":"takerAsset","type":"uint256","internalType":"Address"},{"name":"makingAmount","type":"uint256","internalType":"uint256"},{"name":"takingAmount","type":"uint256","internalType":"uint256"},{"name":"makerTraits","type":"uint256","internalType":"MakerTraits"}]},{"name":"extension","type":"bytes","internalType":"bytes"},{"name":"signature","type":"bytes","internalType":"bytes"}],"outputs":[],"stateMutability":"nonpayable"},{"type":"event","name":"OrderRegistered","inputs":[{"name":"order","type":"tuple","indexed":false,"internalType":"struct IOrderMixin.Order","components":[{"name":"salt","type":"uint256","internalType":"uint256"},{"name":"maker","type":"uint256","internalType":"Address"},{"name":"receiver","type":"uint256","internalType":"Address"},{"name":"makerAsset","type":"uint256","internalType":"Address"},{"name":"takerAsset","type":"uint256","internalType":"Address"},{"name":"makingAmount","type":"uint256","internalType":"uint256"},{"name":"takingAmount","type":"uint256","internalType":"uint256"},{"name":"makerTraits","type":"uint256","internalType":"MakerTraits"}]},{"name":"extension","type":"bytes","indexed":false,"internalType":"bytes"},{"name":"signature","type":"bytes","indexed":false,"internalType":"bytes"}],"anonymous":false},{"type":"error","name":"BadSignature","inputs":[]}],"bytecode":{"object":"0x60a03461006957601f61056338819003918201601f19168301916001600160401b0383118484101761006d5780849260209460405283398101031261006957516001600160a01b0381168103610069576080526040516104e1908161008282396080518160f50152f35b5f80fd5b634e487b7160e01b5f52604160045260245ffdfe6080604052600480361015610012575f80fd5b5f3560e01c63dfcb3e3414610025575f80fd5b3461021357610140366003190181811261021357610100809112610213576101049267ffffffffffffffff8435818111610213576100669036908401610231565b909161012435908111610213576100809036908501610231565b93909661008d83856102b5565b901561022a575060018060a01b036020604051809363802b2ef160e01b82526100f18683016004358152602435602082015260443560408201526064356060820152608435608082015260a43560a082015260c43560c082015260e060e435910152565b81847f0000000000000000000000000000000000000000000000000000000000000000165afa90811561021f5786918a915f916101e0575b61013794506024351661035f565b156101d15750916101bd7f1e8610b3a2275f01a103e27257e911d890537b0c70578537ea077ec0a27b5bc996926101cc94876040519889986101b28a6004358152602435602082015260443560408201526064356060820152608435608082015260a43560a082015260c43560c082015260e060e435910152565b890152870191610295565b91848303610120860152610295565b0390a1005b604051635cd5d23360e01b8152fd5b925050506020823d602011610217575b816101fd6020938361025f565b8101031261021357888691610137935190610129565b5f80fd5b3d91506101f0565b6040513d5f823e3d90fd5b90505f525ffd5b9181601f840112156102135782359167ffffffffffffffff8311610213576020838186019501011161021357565b90601f8019910116810190811067ffffffffffffffff82111761028157604052565b634e487b7160e01b5f52604160045260245ffd5b908060209392818452848401375f828201840152601f01601f1916010190565b9060e435600160f91b161561034b57801561033c5767ffffffffffffffff811161028157604051906102f1601f8201601f19166020018361025f565b8082526020820192368282011161021357815f926020928637830101525190206001600160a01b039081166004359091160361032f575b6001905f90565b5f9063dc11ee6b60e01b90565b505f9163b2d25e4960e01b9150565b905015610328575f906374896a7b60e01b90565b919290916001600160a01b0380821692919083156104a157604093848414918215610496575b826103e2575b50506103d857602092825f938497835193630b135d3f60e11b98898652600486015260248501528160448501526064840137606401915afa6103cb575090565b5f51143d60201416919050565b5050505050600190565b9091505f8551858060411461047e5760401461045257505f805b61040b575b5016145f8061038b565b7f7fffffffffffffffffffffffffffffff5d576e7357a4501ddfe92f46681b20a1606082015110156104015760209150608081895f935282805260015afa505f515f610401565b8060208a01358060ff1c601b01602083015260208b8a8401376001600160ff1b031660608201526103fc565b50868901355f1a602082015280878a818301376103fc565b604185149250610385565b5050505050505f9056fea26469706673582212204488559b948831fc25e7c0ec21222929b96b7df602d55d1b6b9034b935f3d39864736f6c63430008170033","linkReferences":{}},"methodIdentifiers":{"registerOrder((uint256,uint256,uint256,uint256,uint256,uint256,uint256,uint256),bytes,bytes)":"dfcb3e34"},"id":77}