{"abi":[{"type":"function","name":"and","inputs":[{"name":"offsets","type":"uint256","internalType":"uint256"},{"name":"data","type":"bytes","internalType":"bytes"}],"outputs":[{"name":"","type":"bool","internalType":"bool"}],"stateMutability":"view"},{"type":"function","name":"arbitraryStaticCall","inputs":[{"name":"target","type":"address","internalType":"address"},{"name":"data","type":"bytes","internalType":"bytes"}],"outputs":[{"name":"","type":"uint256","internalType":"uint256"}],"stateMutability":"view"},{"type":"function","name":"eq","inputs":[{"name":"value","type":"uint256","internalType":"uint256"},{"name":"data","type":"bytes","internalType":"bytes"}],"outputs":[{"name":"","type":"bool","internalType":"bool"}],"stateMutability":"view"},{"type":"function","name":"gt","inputs":[{"name":"value","type":"uint256","internalType":"uint256"},{"name":"data","type":"bytes","internalType":"bytes"}],"outputs":[{"name":"","type":"bool","internalType":"bool"}],"stateMutability":"view"},{"type":"function","name":"lt","inputs":[{"name":"value","type":"uint256","internalType":"uint256"},{"name":"data","type":"bytes","internalType":"bytes"}],"outputs":[{"name":"","type":"bool","internalType":"bool"}],"stateMutability":"view"},{"type":"function","name":"not","inputs":[{"name":"data","type":"bytes","internalType":"bytes"}],"outputs":[{"name":"","type":"bool","internalType":"bool"}],"stateMutability":"view"},{"type":"function","name":"or","inputs":[{"name":"offsets","type":"uint256","internalType":"uint256"},{"name":"data","type":"bytes","internalType":"bytes"}],"outputs":[{"name":"","type":"bool","internalType":"bool"}],"stateMutability":"view"},{"type":"error","name":"ArbitraryStaticCallFailed","inputs":[]}],"bytecode":{"object":"0x6080806040523461001657610395908161001b8239f35b5f80fdfe604060808152600480361015610013575f80fd5b5f3560e01c9081634f38e2b8146101dd5781636fe7b0ba146101ac5781637426114514610191578163bf15fcd814610125578163bf797959146100cd57508063bfa75143146100a95763ca4ece221461006a575f80fd5b346100a55761008860209161007e3661023c565b909391933061033b565b8193919361009b575b5050519015158152f35b1091505f80610091565b5f80fd5b50346100a5576020906100c46100be3661023c565b916102df565b90519015158152f35b82346100a55760203660031901126100a55781359167ffffffffffffffff83116100a55761010361010a9160209436910161020e565b903061033b565b8192919261011c575b50519015158152f35b15915083610113565b82346100a557806003193601126100a55781356001600160a01b03811681036100a5576024359067ffffffffffffffff82116100a55761016b610171923690860161020e565b9161033b565b919015610182576020925051908152f35b51631f1b8f6160e01b81529050fd5b82346100a5576020906100c46101a63661023c565b91610288565b82346100a5576101c160209161007e3661023c565b819391936101d3575050519015158152f35b1491508380610091565b82346100a5576101f260209161007e3661023c565b81939193610204575050519015158152f35b1191508380610091565b9181601f840112156100a55782359167ffffffffffffffff83116100a557602083818601950101116100a557565b9060406003198301126100a557600435916024359067ffffffffffffffff82116100a55761026c9160040161020e565b9091565b909392938483116100a55784116100a5578101920390565b929091925f5b63ffffffff82169081156102d557610103826102ab928888610270565b816102ca575b506102c0579060201c9061028e565b5050915050600190565b60019150145f6102b1565b5050509150505f90565b929091925f5b63ffffffff82169081156103305761010382610302928888610270565b9015908115610324575b5061031b579060201c906102e5565b50509150505f90565b6001915014155f61030c565b505050915050600190565b915f906020928294826040519283375afa60203d1416918261035957565b5f51915056fea2646970667358221220a6f60fe43a6511b151a5a598e4bcf64881fbb9ab8095c4aed68cf8482eb98c9764736f6c63430008170033","linkReferences":{}},"methodIdentifiers":{"and(uint256,bytes)":"bfa75143","arbitraryStaticCall(address,bytes)":"bf15fcd8","eq(uint256,bytes)":"6fe7b0ba","gt(uint256,bytes)":"4f38e2b8","lt(uint256,bytes)":"ca4ece22","not(bytes)":"bf797959","or(uint256,bytes)":"74261145"},"id":78}