{"abi":[{"type":"constructor","inputs":[],"stateMutability":"nonpayable"},{"type":"fallback","stateMutability":"nonpayable"},{"type":"receive","stateMutability":"payable"},{"type":"function","name":"VERSION","inputs":[],"outputs":[{"name":"","type":"string","internalType":"string"}],"stateMutability":"view"},{"type":"function","name":"addOwnerWithThreshold","inputs":[{"name":"owner","type":"address","internalType":"address"},{"name":"_threshold","type":"uint256","internalType":"uint256"}],"outputs":[],"stateMutability":"nonpayable"},{"type":"function","name":"approveHash","inputs":[{"name":"hashToApprove","type":"bytes32","internalType":"bytes32"}],"outputs":[],"stateMutability":"nonpayable"},{"type":"function","name":"approvedHashes","inputs":[{"name":"","type":"address","internalType":"address"},{"name":"","type":"bytes32","internalType":"bytes32"}],"outputs":[{"name":"","type":"uint256","internalType":"uint256"}],"stateMutability":"view"},{"type":"function","name":"changeThreshold","inputs":[{"name":"_threshold","type":"uint256","internalType":"uint256"}],"outputs":[],"stateMutability":"nonpayable"},{"type":"function","name":"checkNSignatures","inputs":[{"name":"dataHash","type":"bytes32","internalType":"bytes32"},{"name":"data","type":"bytes","internalType":"bytes"},{"name":"signatures","type":"bytes","internalType":"bytes"},{"name":"requiredSignatures","type":"uint256","internalType":"uint256"}],"outputs":[],"stateMutability":"view"},{"type":"function","name":"checkNSignatures","inputs":[{"name":"executor","type":"address","internalType":"address"},{"name":"dataHash","type":"bytes32","internalType":"bytes32"},{"name":"signatures","type":"bytes","internalType":"bytes"},{"name":"requiredSignatures","type":"uint256","internalType":"uint256"}],"outputs":[],"stateMutability":"view"},{"type":"function","name":"checkSignatures","inputs":[{"name":"dataHash","type":"bytes32","internalType":"bytes32"},{"name":"data","type":"bytes","internalType":"bytes"},{"name":"signatures","type":"bytes","internalType":"bytes"}],"outputs":[],"stateMutability":"view"},{"type":"function","name":"checkSignatures","inputs":[{"name":"executor","type":"address","internalType":"address"},{"name":"dataHash","type":"bytes32","internalType":"bytes32"},{"name":"signatures","type":"bytes","internalType":"bytes"}],"outputs":[],"stateMutability":"view"},{"type":"function","name":"disableModule","inputs":[{"name":"prevModule","type":"address","internalType":"address"},{"name":"module","type":"address","internalType":"address"}],"outputs":[],"stateMutability":"nonpayable"},{"type":"function","name":"domainSeparator","inputs":[],"outputs":[{"name":"","type":"bytes32","internalType":"bytes32"}],"stateMutability":"view"},{"type":"function","name":"enableModule","inputs":[{"name":"module","type":"address","internalType":"address"}],"outputs":[],"stateMutability":"nonpayable"},{"type":"function","name":"execTransaction","inputs":[{"name":"to","type":"address","internalType":"address"},{"name":"value","type":"uint256","internalType":"uint256"},{"name":"data","type":"bytes","internalType":"bytes"},{"name":"operation","type":"uint8","internalType":"enum Enum.Operation"},{"name":"safeTxGas","type":"uint256","internalType":"uint256"},{"name":"baseGas","type":"uint256","internalType":"uint256"},{"name":"gasPrice","type":"uint256","internalType":"uint256"},{"name":"gasToken","type":"address","internalType":"address"},{"name":"refundReceiver","type":"address","internalType":"address payable"},{"name":"signatures","type":"bytes","internalType":"bytes"}],"outputs":[{"name":"success","type":"bool","internalType":"bool"}],"stateMutability":"payable"},{"type":"function","name":"execTransactionFromModule","inputs":[{"name":"to","type":"address","internalType":"address"},{"name":"value","type":"uint256","internalType":"uint256"},{"name":"data","type":"bytes","internalType":"bytes"},{"name":"operation","type":"uint8","internalType":"enum Enum.Operation"}],"outputs":[{"name":"success","type":"bool","internalType":"bool"}],"stateMutability":"nonpayable"},{"type":"function","name":"execTransactionFromModuleReturnData","inputs":[{"name":"to","type":"address","internalType":"address"},{"name":"value","type":"uint256","internalType":"uint256"},{"name":"data","type":"bytes","internalType":"bytes"},{"name":"operation","type":"uint8","internalType":"enum Enum.Operation"}],"outputs":[{"name":"success","type":"bool","internalType":"bool"},{"name":"returnData","type":"bytes","internalType":"bytes"}],"stateMutability":"nonpayable"},{"type":"function","name":"getModulesPaginated","inputs":[{"name":"start","type":"address","internalType":"address"},{"name":"pageSize","type":"uint256","internalType":"uint256"}],"outputs":[{"name":"array","type":"address[]","internalType":"address[]"},{"name":"next","type":"address","internalType":"address"}],"stateMutability":"view"},{"type":"function","name":"getOwners","inputs":[],"outputs":[{"name":"","type":"address[]","internalType":"address[]"}],"stateMutability":"view"},{"type":"function","name":"getStorageAt","inputs":[{"name":"offset","type":"uint256","internalType":"uint256"},{"name":"length","type":"uint256","internalType":"uint256"}],"outputs":[{"name":"","type":"bytes","internalType":"bytes"}],"stateMutability":"view"},{"type":"function","name":"getThreshold","inputs":[],"outputs":[{"name":"","type":"uint256","internalType":"uint256"}],"stateMutability":"view"},{"type":"function","name":"getTransactionHash","inputs":[{"name":"to","type":"address","internalType":"address"},{"name":"value","type":"uint256","internalType":"uint256"},{"name":"data","type":"bytes","internalType":"bytes"},{"name":"operation","type":"uint8","internalType":"enum Enum.Operation"},{"name":"safeTxGas","type":"uint256","internalType":"uint256"},{"name":"baseGas","type":"uint256","internalType":"uint256"},{"name":"gasPrice","type":"uint256","internalType":"uint256"},{"name":"gasToken","type":"address","internalType":"address"},{"name":"refundReceiver","type":"address","internalType":"address"},{"name":"_nonce","type":"uint256","internalType":"uint256"}],"outputs":[{"name":"txHash","type":"bytes32","internalType":"bytes32"}],"stateMutability":"view"},{"type":"function","name":"isModuleEnabled","inputs":[{"name":"module","type":"address","internalType":"address"}],"outputs":[{"name":"","type":"bool","internalType":"bool"}],"stateMutability":"view"},{"type":"function","name":"isOwner","inputs":[{"name":"owner","type":"address","internalType":"address"}],"outputs":[{"name":"","type":"bool","internalType":"bool"}],"stateMutability":"view"},{"type":"function","name":"nonce","inputs":[],"outputs":[{"name":"","type":"uint256","internalType":"uint256"}],"stateMutability":"view"},{"type":"function","name":"removeOwner","inputs":[{"name":"prevOwner","type":"address","internalType":"address"},{"name":"owner","type":"address","internalType":"address"},{"name":"_threshold","type":"uint256","internalType":"uint256"}],"outputs":[],"stateMutability":"nonpayable"},{"type":"function","name":"setFallbackHandler","inputs":[{"name":"handler","type":"address","internalType":"address"}],"outputs":[],"stateMutability":"nonpayable"},{"type":"function","name":"setGuard","inputs":[{"name":"guard","type":"address","internalType":"address"}],"outputs":[],"stateMutability":"nonpayable"},{"type":"function","name":"setModuleGuard","inputs":[{"name":"moduleGuard","type":"address","internalType":"address"}],"outputs":[],"stateMutability":"nonpayable"},{"type":"function","name":"setup","inputs":[{"name":"_owners","type":"address[]","internalType":"address[]"},{"name":"_threshold","type":"uint256","internalType":"uint256"},{"name":"to","type":"address","internalType":"address"},{"name":"data","type":"bytes","internalType":"bytes"},{"name":"fallbackHandler","type":"address","internalType":"address"},{"name":"paymentToken","type":"address","internalType":"address"},{"name":"payment","type":"uint256","internalType":"uint256"},{"name":"paymentReceiver","type":"address","internalType":"address payable"}],"outputs":[],"stateMutability":"nonpayable"},{"type":"function","name":"signedMessages","inputs":[{"name":"","type":"bytes32","internalType":"bytes32"}],"outputs":[{"name":"","type":"uint256","internalType":"uint256"}],"stateMutability":"view"},{"type":"function","name":"simulateAndRevert","inputs":[{"name":"targetContract","type":"address","internalType":"address"},{"name":"calldataPayload","type":"bytes","internalType":"bytes"}],"outputs":[],"stateMutability":"nonpayable"},{"type":"function","name":"swapOwner","inputs":[{"name":"prevOwner","type":"address","internalType":"address"},{"name":"oldOwner","type":"address","internalType":"address"},{"name":"newOwner","type":"address","internalType":"address"}],"outputs":[],"stateMutability":"nonpayable"},{"type":"event","name":"AddedOwner","inputs":[{"name":"owner","type":"address","indexed":true,"internalType":"address"}],"anonymous":false},{"type":"event","name":"ApproveHash","inputs":[{"name":"approvedHash","type":"bytes32","indexed":true,"internalType":"bytes32"},{"name":"owner","type":"address","indexed":true,"internalType":"address"}],"anonymous":false},{"type":"event","name":"ChangedFallbackHandler","inputs":[{"name":"handler","type":"address","indexed":true,"internalType":"address"}],"anonymous":false},{"type":"event","name":"ChangedGuard","inputs":[{"name":"guard","type":"address","indexed":true,"internalType":"address"}],"anonymous":false},{"type":"event","name":"ChangedModuleGuard","inputs":[{"name":"moduleGuard","type":"address","indexed":true,"internalType":"address"}],"anonymous":false},{"type":"event","name":"ChangedThreshold","inputs":[{"name":"threshold","type":"uint256","indexed":false,"internalType":"uint256"}],"anonymous":false},{"type":"event","name":"DisabledModule","inputs":[{"name":"module","type":"address","indexed":true,"internalType":"address"}],"anonymous":false},{"type":"event","name":"EnabledModule","inputs":[{"name":"module","type":"address","indexed":true,"internalType":"address"}],"anonymous":false},{"type":"event","name":"ExecutionFailure","inputs":[{"name":"txHash","type":"bytes32","indexed":true,"internalType":"bytes32"},{"name":"payment","type":"uint256","indexed":false,"internalType":"uint256"}],"anonymous":false},{"type":"event","name":"ExecutionFromModuleFailure","inputs":[{"name":"module","type":"address","indexed":true,"internalType":"address"}],"anonymous":false},{"type":"event","name":"ExecutionFromModuleSuccess","inputs":[{"name":"module","type":"address","indexed":true,"internalType":"address"}],"anonymous":false},{"type":"event","name":"ExecutionSuccess","inputs":[{"name":"txHash","type":"bytes32","indexed":true,"internalType":"bytes32"},{"name":"payment","type":"uint256","indexed":false,"internalType":"uint256"}],"anonymous":false},{"type":"event","name":"RemovedOwner","inputs":[{"name":"owner","type":"address","indexed":true,"internalType":"address"}],"anonymous":false},{"type":"event","name":"SafeReceived","inputs":[{"name":"sender","type":"address","indexed":true,"internalType":"address"},{"name":"value","type":"uint256","indexed":false,"internalType":"uint256"}],"anonymous":false},{"type":"event","name":"SafeSetup","inputs":[{"name":"initiator","type":"address","indexed":true,"internalType":"address"},{"name":"owners","type":"address[]","indexed":false,"internalType":"address[]"},{"name":"threshold","type":"uint256","indexed":false,"internalType":"uint256"},{"name":"initializer","type":"address","indexed":false,"internalType":"address"},{"name":"fallbackHandler","type":"address","indexed":false,"internalType":"address"}],"anonymous":false},{"type":"event","name":"SignMsg","inputs":[{"name":"msgHash","type":"bytes32","indexed":true,"internalType":"bytes32"}],"anonymous":false}],"bytecode":{"object":"0x6080806040523461001b576001600455612a2690816100208239f35b5f80fdfe608060405260043610156100a1575b3615610073573461006f577f6c9a6c4a39284e37ed1cf53d337577d14212a4870fb976a4366c693b939918d554801561006d575f8060405192368285373360601b36850152838260143601925af13d5f833e15610069573d90f35b3d90fd5b005b5f80fd5b6040513481527f3d0ce9bfc3ed7d6862dbb28b2dea94561fe714a1b4d019aa8af39730d1ad7c3d60203392a2005b5f803560e01c80630d582f1314611b8f57806312fb68e014611b345780631fcac7f314611aeb5780632d9ad53d14611ac85780632f54bf6e14611a74578063468721a714611a345780635229073f146119ca5780635624b25b1461194a5780635ae6bd3714611920578063610b59251461183d578063694e80c3146117e15780636a761202146112805780637d8329741461123d578063934f3a11146111e1578063a0e67e2b1461114e578063affed0e014611130578063b4faba09146110cb578063b63e800d14610bcf578063cc2f845214610a2e578063d4d9bdcd1461098e578063d8d11f7814610912578063e009cfde1461081f578063e068df3714610717578063e19a9dd9146105f4578063e318b52b146104b5578063e75235b814610497578063f08a03231461043c578063f698da2514610419578063f855438b146103cb578063f8dc5dd9146102735763ffa1ad7414610201575061000e565b3461027057806003193601126102705760405160408101908082106001600160401b0383111761025c576102589160405260058152640312e352e360dc1b6020820152604051918291602083526020830190611e77565b0390f35b634e487b7160e01b5f52604160045260245ffd5b80fd5b50346102705760603660031901126102705761028d611cb7565b610295611d10565b90604435916102a2612552565b60035480156103b75783905f1901806003551061039e576001600160a01b0390811691821580156103ad575b6103a85781169081855260026020528281604087205416036103a3578285526002602052604085205416908452604084206001600160601b0360a01b9182825416179055818452604084209081541690557ff8d49fc529812e9a7c5c50e69c20f0dccc0db8fa95c98bc58cc9a4f1c1299eaf8380a28060045403610350575080f35b610358612552565b600354811161039e578015610399576020817f610f7ff2b304ae8903c3de74c60c6ab1f7d6226b3f52c5161905bb5ad4039c9392600455604051908152a180f35b61260f565b6125e2565b612669565b612588565b50600183146102ce565b634e487b7160e01b85526011600452602485fd5b5034610270576060366003190112610270576103e5611cb7565b604435906001600160401b03821161041557610408610412923690600401611e07565b906024359061250f565b80f35b8280fd5b503461027057806003193601126102705760206104346124c5565b604051908152f35b503461027057602036600319011261027057610456611cb7565b61045e612552565b6104678161298f565b6001600160a01b03167f5ac6c46c93c8d0e53714ba3b53db3e7c046da994313d7ed0d192028bc7c228b08280a280f35b50346102705780600319360112610270576020600454604051908152f35b5034610270576060366003190112610270576104cf611cb7565b6104d7611d10565b906104e0611ce3565b6104e8612552565b6001600160a01b0390811692831580156105ea575b80156105e1575b6103a8578385526002602052816040862054166105dc57811691821580156105d2575b6103a85781169081855260026020528281604087205416036103a357828552600260205260408520541690838552604085206001600160601b0360a01b92838254161790558452604084208382825416179055818452604084209081541690557ff8d49fc529812e9a7c5c50e69c20f0dccc0db8fa95c98bc58cc9a4f1c1299eaf8380a27f9465fa0c962cc76958e6373a993326400c1c94f8be2fe3a952adfa7f60b2ea268280a280f35b5060018314610527565b6125b5565b50308414610504565b50600184146104fd565b50346102705760203660031901126102705761060e611cb7565b610616612552565b6001600160a01b03811690811515806106a4575b610677577f4a204f620c8c5ccdca3fd54d003badd85ba500436a431f0cbda4f558c93c34c8557f1151116914515bc0891ff9047a6cb32cf902546f83066499bcf8ba33d2353fa28280a280f35b60405162461bcd60e51b8152602060048201526005602482015264047533330360dc1b6044820152606490fd5b506040516301ffc9a760e01b815263736bd41d60e11b6004820152602081602481865afa90811561070c5784916106dd575b501561062a565b6106ff915060203d602011610705575b6106f78183611d95565b8101906124ad565b5f6106d6565b503d6106ed565b6040513d86823e3d90fd5b503461027057602036600319011261027057610731611cb7565b610739612552565b6001600160a01b03811690811515806107c7575b61079a577fb104e0b93118902c651344349b610029d694cfdec91c589c91ebafbcd0289947557fcd1966d6be16bc0c030cc741a06c6e0efaf8d00de2c8b6a9e11827e125de8bb88280a280f35b60405162461bcd60e51b8152602060048201526005602482015264475333303160d81b6044820152606490fd5b506040516301ffc9a760e01b8152630b0803db60e31b6004820152602081602481865afa90811561070c578491610800575b501561074d565b610819915060203d602011610705576106f78183611d95565b5f6107f9565b503461027057604036600319011261027057610839611cb7565b610841611d10565b610849612552565b6001600160a01b039081169182158015610908575b6109035781169081845260016020528281604086205416036108d6578284526001602052604084205416908352604083206001600160601b0360a01b9182825416179055818352604083209081541690557faab4fa2b463f581b2b32cb3b7e3b704b9ce37cc209b5fb4d77e593ace40542768280a280f35b60405162461bcd60e51b8152602060048201526005602482015264475331303360d81b6044820152606490fd5b61263c565b506001831461085e565b5034610270576101403660031901126102705761092d611cb7565b6044356001600160401b0381116104155761094c903690600401611d3a565b6064359360028510156102705760206104348686868661096a611ccd565b91610973611cf9565b93610124359560c4359360a43593608435936024359061241e565b50346102705760203660031901126102705733815260026020526040812054600435906001600160a01b031615610a01573382526008602052604082208183526020526001604083205533907ff2a0eb156472d1440255b0d7c1e19cc07115d1051fe605b0dce69acfec884d9c8380a380f35b60405162461bcd60e51b8152602060048201526005602482015264047533033360dc1b6044820152606490fd5b503461027057604036600319011261027057610a48611cb7565b602435906001906001600160a01b039081811690818414159081610bbe575b50610b91578315610b645782610a7c856123c4565b94869287526020908260205284604089205416955b610b00575b505082841603610ac7575b610abc94508352604051938493604085526040850190611eb5565b911660208301520390f35b91505f19820193828511610aec575080610ae4610abc95856123f6565b511691610aa1565b634e487b7160e01b81526011600452602490fd5b909192948481169081151580610b5a575b80610b51575b15610b4857509081849392610b2c888a6123f6565b528852828252610b428560408a20541696611ef1565b93610a91565b95939250610a96565b50828710610b17565b5084821415610b11565b60405162461bcd60e51b815260206004820152600560248201526423a998981b60d91b6044820152606490fd5b60405162461bcd60e51b8152602060048201526005602482015264475331303560d81b6044820152606490fd5b610bc89150612322565b155f610a67565b503461027057610100366003190112610270576001600160401b036004358181116104155736602382011215610415578181600401351161041557366024826004013560051b8301011161041557610c25611ce3565b916064359081116110c757610c3e903690600401611d3a565b92906084356001600160a01b038116900361006f5760a4356001600160a01b038116900361006f57610c6e611ccd565b9360405160808101608082528560040135905260a081019060248601885b876004013581106110a057505060243560208201526001600160a01b03858116604083015260843516606082015233917f141df868a6331af528e38c83b7aa03edc19be66e37ae67f9285bf4f8e3c6a1a8919081900390a2610cf184600401356123ad565b93610cff6040519586611d95565b6004810135855260248101602086015b6024836004013560051b8401018210611084575050506004546110575783516024351161039e576024351561039957600184519487905b868210610fb45750506001600160a01b03908116875260026020526040872080546001600160a01b0319908116600117909155600395909555602435600455610d9b92919060843516610fa4575b3691611dd1565b600180865260205260408520549092906001600160a01b0316610f7757600180865260208190526040862080549092161790556001600160a01b038116610efb575b505060c435610dea575080f35b6001600160a01b038116610ef65750325b60a4356001600160a01b0316610e77575f808080933a6001108214610e6e57610e2860015b60c43561273a565b906001600160a01b03165af13d15610e69573d610e4481611db6565b90610e526040519283611d95565b81525f60203d92013e5b15610e645780f35b6126c3565b610e5c565b610e283a610e20565b5f602091610e8660c43561271e565b60405163a9059cbb60e01b8582019081526001600160a01b039093166024820152604480820192909252908152610ebc81611d7a565b51908260a43561270f195a01f13d8015610ef057602014610ee457505f5b610412575b612696565b5f511590151715610eda565b50610eda565b610dfb565b803b15610f4a5781515f9283926020909101905f19f415610f1d575f80610ddd565b60405162461bcd60e51b8152602060048201526005602482015264047533030360dc1b6044820152606490fd5b60405162461bcd60e51b815260206004820152600560248201526423a998181960d91b6044820152606490fd5b60405162461bcd60e51b8152602060048201526005602482015264047533130360dc1b6044820152606490fd5b610faf60843561298f565b610d94565b90916001600160a01b03610fc884846123f6565b51168015801561104d575b8015611044575b8015611032575b6103a857808a526002602081905260408b20546001600160a01b03166105dc576001600160a01b039092168a526020919091526040892080546001600160a01b031916821790559160010190610d46565b506001600160a01b0382168114610fe1565b50308114610fda565b5060018114610fd3565b60405162461bcd60e51b8152602060048201526005602482015264047533230360dc1b6044820152606490fd5b60208060249261109385611d26565b8152019201919050610d0f565b90926001906001600160a01b036110b686611d26565b168152602080910194019101610c8c565b8380fd5b503461027057604036600319011261027057806110e6611cb7565b602435906001600160401b03821161112c5761110783923690600401611e07565b90602082519201905af4906040519182523d60208301523d90604083013e60403d0190fd5b5050fd5b50346102705780600319360112610270576020600554604051908152f35b503461027057806003193601126102705761116a6003546123c4565b90806001916001815260026020600260205260018060a01b03938585604086205416905b6111a9575b604051602080825281906102589082018b611eb5565b85168681146111dc57908187926111c0838b6123f6565b5285528383526111d68660408720541691611ef1565b9161118e565b611193565b5034610270576060366003190112610270576001600160401b0360243581811161041557611213903690600401611d3a565b505060443590811161123957611230610412913690600401611e07565b6004353361250f565b5080fd5b5034610270576040366003190112610270576020906040906001600160a01b03611265611cb7565b16815260088352818120602435825283522054604051908152f35b5061014036600319011261006f57611296611cb7565b6001600160401b0360443581811161006f576112b6903690600401611d3a565b9190926002606435101561006f576112cc611ccd565b6112d4611cf9565b926101243590811161006f576112ee903690600401611e07565b916113236005546112fe81611ef1565b6005556001600160a01b0386168460c43560a4356084356064358c8e6024358b61241e565b9461132f84873361250f565b7f4a204f620c8c5ccdca3fd54d003badd85ba500436a431f0cbda4f558c93c34c8546001600160a01b031693846116f8575b505a6109c460843501608435116116e4576109c460843501603f60843560061b0410155f146116d757603f60843560061b04905b6101f4820180921161168457106116aa575a9660c435611698575a6109c319810190811161168457916113ce5f94928594923691611dd1565b9160016064351484146116715760208351930191f4925b5a9186831161166d57868381031161165957841596878061164f575b80611645575b61163a578693899360c4356114f3575b50505050835f146114c35760207f442e715f626346e8c54381002da614f62bee8d27386535b2521ec8540898556e91604051908152a25b80611460575b60208460405190158152f35b908185923b1561041557604051631264e26d60e31b8152600481019490945290151560248401528290604490829084905af180156114b8576114a4575b8080611454565b6114ae8391611d67565b611239578161149d565b6040513d85823e3d90fd5b60207f23428b18acfb3ea64b08dc0c1d296ea9c09702c09083ca5272e64d115b687d2391604051908152a261144e565b929450909250906001600160a01b038116611634575032925b6001600160a01b0381166115a0575061152960a4358284036123a0565b9103811061006f575f808061154d81943a60c4351083146115995760c4359061273a565b9485906001600160a01b03165af13d15611594573d61156b81611db6565b906115796040519283611d95565b81525f60203d92013e5b15610e645783905b5f808080611417565b611583565b3a9061273a565b91906115b060a4358284036123a0565b9103811061006f576020916115c95f9260c4359061273a565b93826040518581019263a9059cbb60e01b845260018060a01b03166024820152866044820152604481526115fc81611d7a565b519261270f195a01f13d801561162e5760201461162257505f5b15610edf57839061158b565b5f511590151715611616565b50611616565b9261150c565b6040513d8a823e3d90fd5b5060c43515611407565b5060843515611401565b634e487b7160e01b5f52601160045260245ffd5b8780fd5b906020835193019160243591f1926113e5565b634e487b7160e01b8a52601160045260248afd5b915f92916113ce849360843592610d94565b60405162461bcd60e51b8152602060048201526005602482015264047533031360dc1b6044820152606490fd5b6109c46084350190611395565b634e487b7160e01b89526011600452602489fd5b843b1561006f57604051633af85da960e11b81526001600160a01b0384166004820152602480359082015261016060448201526101648101839052905f90829081906117ab90610184878e8286013785818986010152601f19601f890116840161176760648601606435612353565b608480359086015260a480359086015260c48035908601526001600160a01b038b811660e48701528d16610104860152848103610180016101248601520190611e77565b33610144830152038183895af180156117d65715611361576117ce919850611d67565b5f965f611361565b6040513d5f823e3d90fd5b3461006f57602036600319011261006f576004356117fd612552565b600354811161039e578015610399576020817f610f7ff2b304ae8903c3de74c60c6ab1f7d6226b3f52c5161905bb5ad4039c9392600455604051908152a1005b3461006f57602036600319011261006f57611856611cb7565b61185e612552565b6001600160a01b039081169081158015611916575b61090357815f5260016020528060405f2054166118e95760015f52600160205260405f205416815f5260405f206001600160601b0360a01b918282541617905560015f528160405f20918254161790557fecdf3a3effea5783a3c4c2140e677577666428d44ed9d474a0b3a4c9943f84405f80a2005b60405162461bcd60e51b815260206004820152600560248201526423a998981960d91b6044820152606490fd5b5060018214611873565b3461006f57602036600319011261006f576004355f526007602052602060405f2054604051908152f35b3461006f57604036600319011261006f5760043560243560058160051b9261198a61197485611db6565b946119826040519687611d95565b808652611db6565b60209190601f190136868401375f5b8481106119b6576040516020808252819061025890820189611e77565b8181015481851b8701840152600101611999565b3461006f57611a166119f86119de36611e25565b906119f082828587999798969861275e565b95909661289f565b80926040519460203d8701016040523d86523d5f602088013e6128d2565b61025860405192839215158352604060208401526040830190611e77565b3461006f576020611a62611a6a611a4a36611e25565b90611a5a8282858799969961275e565b96909461289f565b9283916128d2565b6040519015158152f35b3461006f57602036600319011261006f5760206001600160a01b0380611a98611cb7565b169060018214918215611ab1575b505060405190158152f35b9091505f526002825260405f205416158280611aa6565b3461006f57602036600319011261006f576020611a6a611ae6611cb7565b612322565b3461006f57608036600319011261006f57611b04611cb7565b604435906001600160401b03821161006f57611b2761006d923690600401611e07565b6064359160243590611eff565b3461006f57608036600319011261006f576001600160401b0360243581811161006f57611b65903690600401611d3a565b505060443590811161006f57611b8261006d913690600401611e07565b6064359060043533611eff565b3461006f57604036600319011261006f57611ba8611cb7565b60243590611bb4612552565b6001600160a01b039081169081158015611cad575b8015611ca4575b6103a857815f5260026020528060405f2054166105dc5760015f52600260205260405f205416815f5260405f206001600160601b0360a01b918282541617905560015f528160405f2091825416179055611c2b600354611ef1565b90816003557f9465fa0c962cc76958e6373a993326400c1c94f8be2fe3a952adfa7f60b2ea265f80a28160045403611c5f57005b611c67612552565b811161039e578015610399576020817f610f7ff2b304ae8903c3de74c60c6ab1f7d6226b3f52c5161905bb5ad4039c9392600455604051908152a1005b50308214611bd0565b5060018214611bc9565b600435906001600160a01b038216820361006f57565b60e435906001600160a01b038216820361006f57565b604435906001600160a01b038216820361006f57565b61010435906001600160a01b038216820361006f57565b602435906001600160a01b038216820361006f57565b35906001600160a01b038216820361006f57565b9181601f8401121561006f578235916001600160401b03831161006f576020838186019501011161006f57565b6001600160401b03811161025c57604052565b608081019081106001600160401b0382111761025c57604052565b90601f801991011681019081106001600160401b0382111761025c57604052565b6001600160401b03811161025c57601f01601f191660200190565b929192611ddd82611db6565b91611deb6040519384611d95565b82948184528183011161006f578281602093845f960137010152565b9080601f8301121561006f57816020611e2293359101611dd1565b90565b608060031982011261006f576004356001600160a01b038116810361006f579160243591604435906001600160401b03821161006f57611e6791600401611e07565b90606435600281101561006f5790565b91908251928382525f5b848110611ea1575050825f602080949584010152601f8019910116010190565b602081830181015184830182015201611e81565b9081518082526020808093019301915f5b828110611ed4575050505090565b83516001600160a01b031685529381019392810192600101611ec6565b5f1981146116595760010190565b9290928251611f0d836126f0565b116122f5575f805b838210611f2457505050505050565b60419082820286016020918282015160409283810151956060809201515f1a9182155f1461217f575050506001600160a01b031693611f62886126f0565b811061215357611f7181612392565b81811061006f578951106121275783818a0101908151611f9082612392565b91821061006f57611fa190826123a0565b90811061006f578951106120fb578251630b135d3f60e11b918282526004926044928d85820152878180611fdf6024968b8884015288830190611e77565b03818c5afa9081156120f1575f916120b3575b506001600160e01b03191603612089575050505b6001600160a01b0390811684821690811180159290612072575b508115612067575b5061203a575050600190910190611f15565b5162461bcd60e51b81526004810191909152600560248201526423a998191b60d91b604482015260649150fd5b60019150145f612028565b908092505f5260028452825f20541615905f612020565b845162461bcd60e51b81529283018690526005908301526411d4cc0c8d60da1b9082015260649150fd5b90508781813d83116120ea575b6120ca8183611d95565b8101031261006f57516001600160e01b03198116810361006f575f611ff2565b503d6120c0565b87513d5f823e3d90fd5b825162461bcd60e51b8152600481018590526005602482015264475330323360d81b6044820152606490fd5b825162461bcd60e51b815260048101859052600560248201526423a998191960d91b6044820152606490fd5b825162461bcd60e51b8152600481018590526005602482015264475330323160d81b6044820152606490fd5b9296926001928d8185036121f8575050506001600160a01b0396871696891687141592508291506121de9050575b1561200657815162461bcd60e51b8152600481018490526005602482015264475330323560d81b6044820152606490fd5b50835f5260088352815f20895f528352815f2054156121ad565b9598958890601e8311156122bc579050875192898401917f19457468657265756d205369676e6564204d6573736167653a0a3332000000008352603c908186015284528301938385106001600160401b038611176122aa5750838852825190209460031982019182116116595794835260ff1660208301526040820194909452606081019290925284925f92906080820184805203605f1901915afa156122a1575f5192612006565b513d5f823e3d90fd5b634e487b7160e01b5f5260045260245ffd5b885190815260ff9290921660208301526040820196909652606081019490945250505f808052916080915afa156122a1575f5192612006565b60405162461bcd60e51b8152602060048201526005602482015264047533032360dc1b6044820152606490fd5b6001600160a01b03908116600181141591908261233e57505090565b9091505f52600160205260405f205416151590565b9060028210156123605752565b634e487b7160e01b5f52602160045260245ffd5b811561237e570490565b634e487b7160e01b5f52601260045260245ffd5b906020820180921161165957565b9190820180921161165957565b6001600160401b03811161025c5760051b60200190565b906123ce826123ad565b6123db6040519182611d95565b82815280926123ec601f19916123ad565b0190602036910137565b805182101561240a5760209160051b010190565b634e487b7160e01b5f52603260045260245ffd5b95601e999397919560429b959993996124356124c5565b99806040519c8d378b207fbb8310d486368db6bd6f849402fdd73ad53d316b5a4b2644ad6efe0f941286d88c5260208c01998a5260408c0198895260608c015260808b015260a08a015260c089015260e088015261010087015261012086015261014085015261016084209052611901835252012090565b9081602091031261006f5751801515810361006f5790565b60405160208101907f47e79534a245952e8b16893a336b85a3d9ea9fa8c573f3d803afb92a7946921882524660408201523060608201526060815261250981611d7a565b51902090565b916004549182156125255761252393611eff565b565b60405162461bcd60e51b8152602060048201526005602482015264475330303160d81b6044820152606490fd5b30330361255b57565b60405162461bcd60e51b8152602060048201526005602482015264475330333160d81b6044820152606490fd5b60405162461bcd60e51b8152602060048201526005602482015264475332303360d81b6044820152606490fd5b60405162461bcd60e51b815260206004820152600560248201526411d4cc8c0d60da1b6044820152606490fd5b60405162461bcd60e51b8152602060048201526005602482015264475332303160d81b6044820152606490fd5b60405162461bcd60e51b815260206004820152600560248201526423a999181960d91b6044820152606490fd5b60405162461bcd60e51b8152602060048201526005602482015264475331303160d81b6044820152606490fd5b60405162461bcd60e51b8152602060048201526005602482015264475332303560d81b6044820152606490fd5b60405162461bcd60e51b815260206004820152600560248201526423a998189960d91b6044820152606490fd5b60405162461bcd60e51b8152602060048201526005602482015264475330313160d81b6044820152606490fd5b80156127195760418102908082046041036116595761271160419183612374565b0361006f5790565b505f90565b8015612719578080046001036116595760016127118280612374565b90811561275857808202918083048203611659576127119083612374565b50505f90565b9391905f937fb104e0b93118902c651344349b610029d694cfdec91c589c91ebafbcd02899475495600133148015612880575b612853576001600160a01b0387811692909190836127b2575b505050505050565b602095969750905f916127fc6127f1604051998a988997889663394614b960e11b8852166004870152602486015260a0604486015260a4850190611e77565b916064840190612353565b33608483015203925af19081156117d6575f91612821575b50905f80808080806127aa565b90506020813d60201161284b575b8161283c60209383611d95565b8101031261006f57515f612814565b3d915061282f565b60405162461bcd60e51b815260206004820152600560248201526411d4cc4c0d60da1b6044820152606490fd5b50335f908152600160205260409020546001600160a01b031615612791565b929190926002831015612360575f9384936001036128c55750602082519201908319f490565b602083519301918419f190565b5f9291906001600160a01b03168061293a575b505015612913577f6895c13664aa4f67288b25d7a21d7aaa34916e355fb9b6fae0a139a9085becb8339180a2565b7facd2c8702804128fdb0db2bb49f6d127dd0181c13fd45dbfe16de0930e2bd375339180a2565b803b1561006f576040516315661bd560e11b8152600481019290925282151560248301525f908290604490829084905af180156117d65761297c575b806128e5565b612987919250611d67565b5f905f612976565b6001600160a01b03811630146129c3577f6c9a6c4a39284e37ed1cf53d337577d14212a4870fb976a4366c693b939918d555565b60405162461bcd60e51b8152602060048201526005602482015264047533430360dc1b6044820152606490fdfea2646970667358221220d19a17a091da68e8296f9a13750427ba086f97282412135d1584f0e81b5c197b64736f6c63430008170033","linkReferences":{}},"methodIdentifiers":{"VERSION()":"ffa1ad74","addOwnerWithThreshold(address,uint256)":"0d582f13","approveHash(bytes32)":"d4d9bdcd","approvedHashes(address,bytes32)":"7d832974","changeThreshold(uint256)":"694e80c3","checkNSignatures(address,bytes32,bytes,uint256)":"1fcac7f3","checkNSignatures(bytes32,bytes,bytes,uint256)":"12fb68e0","checkSignatures(address,bytes32,bytes)":"f855438b","checkSignatures(bytes32,bytes,bytes)":"934f3a11","disableModule(address,address)":"e009cfde","domainSeparator()":"f698da25","enableModule(address)":"610b5925","execTransaction(address,uint256,bytes,uint8,uint256,uint256,uint256,address,address,bytes)":"6a761202","execTransactionFromModule(address,uint256,bytes,uint8)":"468721a7","execTransactionFromModuleReturnData(address,uint256,bytes,uint8)":"5229073f","getModulesPaginated(address,uint256)":"cc2f8452","getOwners()":"a0e67e2b","getStorageAt(uint256,uint256)":"5624b25b","getThreshold()":"e75235b8","getTransactionHash(address,uint256,bytes,uint8,uint256,uint256,uint256,address,address,uint256)":"d8d11f78","isModuleEnabled(address)":"2d9ad53d","isOwner(address)":"2f54bf6e","nonce()":"affed0e0","removeOwner(address,address,uint256)":"f8dc5dd9","setFallbackHandler(address)":"f08a0323","setGuard(address)":"e19a9dd9","setModuleGuard(address)":"e068df37","setup(address[],uint256,address,bytes,address,address,uint256,address)":"b63e800d","signedMessages(bytes32)":"5ae6bd37","simulateAndRevert(address,bytes)":"b4faba09","swapOwner(address,address,address)":"e318b52b"},"id":37}