{"abi":[{"type":"constructor","inputs":[{"name":"_relayer","type":"address","internalType":"address payable"},{"name":"_token","type":"address","internalType":"address"},{"name":"_repayAmount","type":"uint256","internalType":"uint256"}],"stateMutability":"nonpayable"},{"type":"function","name":"onFill","inputs":[],"outputs":[],"stateMutability":"payable"},{"type":"function","name":"relayer","inputs":[],"outputs":[{"name":"","type":"address","internalType":"address payable"}],"stateMutability":"view"},{"type":"function","name":"repayAmount","inputs":[],"outputs":[{"name":"","type":"uint256","internalType":"uint256"}],"stateMutability":"view"},{"type":"function","name":"token","inputs":[],"outputs":[{"name":"","type":"address","internalType":"address"}],"stateMutability":"view"}],"bytecode":{"object":"0x60803461009357601f6102de38819003918201601f19168301916001600160401b03831184841017610097578084926060946040528339810103126100935780516001600160a01b0380821692909183900361009357602081015191821680920361009357604001519160018060a01b031990815f5416175f55600154161760015560025560405161023290816100ac8239f35b5f80fd5b634e487b7160e01b5f52604160045260245ffdfe60806040908082526004361015610014575f80fd5b5f3560e01c9081631212207c146100ba575080638406c07914610093578063d0efe753146100755763fc0c546a1461004a575f80fd5b34610071575f3660031901126100715760015490516001600160a01b039091168152602090f35b5f80fd5b5034610071575f366003190112610071576020906002549051908152f35b5034610071575f366003190112610071575f5490516001600160a01b039091168152602090f35b90505f366003190112610071573415908161010357505f8080809360018060a01b0382541682916100f9575b3491f1156100f057005b513d5f823e3d90fd5b6108fc91506100e6565b6001549091506001600160a01b03908116908161011c57005b5f541691600254602082019363a9059cbb60e01b85526024830152604482015260448152608081019167ffffffffffffffff93828410858511176101e2575f8094938194885251925af1903d156101f6573d8181116101e257835191601f8201601f19908116603f01168301908111838210176101e257845281525f60203d92013e5b156101a657005b5162461bcd60e51b8152602060048201526016602482015275151bdad95b881c995c185e5b595b9d0819985a5b195960521b6044820152606490fd5b634e487b7160e01b5f52604160045260245ffd5b5061019f56fea2646970667358221220fc86ea3b00bc89a2f20d0ea700e2feb42575720856080b8ef6c95be55ac7395d64736f6c63430008170033","linkReferences":{}},"methodIdentifiers":{"onFill()":"1212207c","relayer()":"8406c079","repayAmount()":"d0efe753","token()":"fc0c546a"},"id":73}