{"abi":[{"type":"constructor","inputs":[{"name":"limitOrderProtocol","type":"address","internalType":"contract IOrderMixin"},{"name":"orderRegistrator","type":"address","internalType":"contract IOrderRegistrator"}],"stateMutability":"nonpayable"},{"type":"fallback","stateMutability":"nonpayable"},{"type":"receive","stateMutability":"payable"},{"type":"function","name":"VERSION","inputs":[],"outputs":[{"name":"","type":"string","internalType":"string"}],"stateMutability":"view"},{"type":"function","name":"addOwnerWithThreshold","inputs":[{"name":"owner","type":"address","internalType":"address"},{"name":"_threshold","type":"uint256","internalType":"uint256"}],"outputs":[],"stateMutability":"nonpayable"},{"type":"function","name":"approveHash","inputs":[{"name":"hashToApprove","type":"bytes32","internalType":"bytes32"}],"outputs":[],"stateMutability":"nonpayable"},{"type":"function","name":"approvedHashes","inputs":[{"name":"","type":"address","internalType":"address"},{"name":"","type":"bytes32","internalType":"bytes32"}],"outputs":[{"name":"","type":"uint256","internalType":"uint256"}],"stateMutability":"view"},{"type":"function","name":"buildAndSignOrder","inputs":[{"name":"order","type":"tuple","internalType":"struct IOrderMixin.Order","components":[{"name":"salt","type":"uint256","internalType":"uint256"},{"name":"maker","type":"uint256","internalType":"Address"},{"name":"receiver","type":"uint256","internalType":"Address"},{"name":"makerAsset","type":"uint256","internalType":"Address"},{"name":"takerAsset","type":"uint256","internalType":"Address"},{"name":"makingAmount","type":"uint256","internalType":"uint256"},{"name":"takingAmount","type":"uint256","internalType":"uint256"},{"name":"makerTraits","type":"uint256","internalType":"MakerTraits"}]},{"name":"extension","type":"bytes","internalType":"bytes"},{"name":"makerAssetOracleParams","type":"tuple","internalType":"struct SafeOrderBuilder.OracleQueryParams","components":[{"name":"oracle","type":"address","internalType":"contract AggregatorV3Interface"},{"name":"originalAnswer","type":"uint256","internalType":"uint256"},{"name":"ttl","type":"uint256","internalType":"uint256"}]},{"name":"takerAssetOracleParams","type":"tuple","internalType":"struct SafeOrderBuilder.OracleQueryParams","components":[{"name":"oracle","type":"address","internalType":"contract AggregatorV3Interface"},{"name":"originalAnswer","type":"uint256","internalType":"uint256"},{"name":"ttl","type":"uint256","internalType":"uint256"}]}],"outputs":[],"stateMutability":"nonpayable"},{"type":"function","name":"changeThreshold","inputs":[{"name":"_threshold","type":"uint256","internalType":"uint256"}],"outputs":[],"stateMutability":"nonpayable"},{"type":"function","name":"checkNSignatures","inputs":[{"name":"dataHash","type":"bytes32","internalType":"bytes32"},{"name":"data","type":"bytes","internalType":"bytes"},{"name":"signatures","type":"bytes","internalType":"bytes"},{"name":"requiredSignatures","type":"uint256","internalType":"uint256"}],"outputs":[],"stateMutability":"view"},{"type":"function","name":"checkNSignatures","inputs":[{"name":"executor","type":"address","internalType":"address"},{"name":"dataHash","type":"bytes32","internalType":"bytes32"},{"name":"signatures","type":"bytes","internalType":"bytes"},{"name":"requiredSignatures","type":"uint256","internalType":"uint256"}],"outputs":[],"stateMutability":"view"},{"type":"function","name":"checkSignatures","inputs":[{"name":"dataHash","type":"bytes32","internalType":"bytes32"},{"name":"data","type":"bytes","internalType":"bytes"},{"name":"signatures","type":"bytes","internalType":"bytes"}],"outputs":[],"stateMutability":"view"},{"type":"function","name":"checkSignatures","inputs":[{"name":"executor","type":"address","internalType":"address"},{"name":"dataHash","type":"bytes32","internalType":"bytes32"},{"name":"signatures","type":"bytes","internalType":"bytes"}],"outputs":[],"stateMutability":"view"},{"type":"function","name":"disableModule","inputs":[{"name":"prevModule","type":"address","internalType":"address"},{"name":"module","type":"address","internalType":"address"}],"outputs":[],"stateMutability":"nonpayable"},{"type":"function","name":"domainSeparator","inputs":[],"outputs":[{"name":"","type":"bytes32","internalType":"bytes32"}],"stateMutability":"view"},{"type":"function","name":"enableModule","inputs":[{"name":"module","type":"address","internalType":"address"}],"outputs":[],"stateMutability":"nonpayable"},{"type":"function","name":"execTransaction","inputs":[{"name":"to","type":"address","internalType":"address"},{"name":"value","type":"uint256","internalType":"uint256"},{"name":"data","type":"bytes","internalType":"bytes"},{"name":"operation","type":"uint8","internalType":"enum Enum.Operation"},{"name":"safeTxGas","type":"uint256","internalType":"uint256"},{"name":"baseGas","type":"uint256","internalType":"uint256"},{"name":"gasPrice","type":"uint256","internalType":"uint256"},{"name":"gasToken","type":"address","internalType":"address"},{"name":"refundReceiver","type":"address","internalType":"address payable"},{"name":"signatures","type":"bytes","internalType":"bytes"}],"outputs":[{"name":"success","type":"bool","internalType":"bool"}],"stateMutability":"payable"},{"type":"function","name":"execTransactionFromModule","inputs":[{"name":"to","type":"address","internalType":"address"},{"name":"value","type":"uint256","internalType":"uint256"},{"name":"data","type":"bytes","internalType":"bytes"},{"name":"operation","type":"uint8","internalType":"enum Enum.Operation"}],"outputs":[{"name":"success","type":"bool","internalType":"bool"}],"stateMutability":"nonpayable"},{"type":"function","name":"execTransactionFromModuleReturnData","inputs":[{"name":"to","type":"address","internalType":"address"},{"name":"value","type":"uint256","internalType":"uint256"},{"name":"data","type":"bytes","internalType":"bytes"},{"name":"operation","type":"uint8","internalType":"enum Enum.Operation"}],"outputs":[{"name":"success","type":"bool","internalType":"bool"},{"name":"returnData","type":"bytes","internalType":"bytes"}],"stateMutability":"nonpayable"},{"type":"function","name":"getModulesPaginated","inputs":[{"name":"start","type":"address","internalType":"address"},{"name":"pageSize","type":"uint256","internalType":"uint256"}],"outputs":[{"name":"array","type":"address[]","internalType":"address[]"},{"name":"next","type":"address","internalType":"address"}],"stateMutability":"view"},{"type":"function","name":"getOwners","inputs":[],"outputs":[{"name":"","type":"address[]","internalType":"address[]"}],"stateMutability":"view"},{"type":"function","name":"getStorageAt","inputs":[{"name":"offset","type":"uint256","internalType":"uint256"},{"name":"length","type":"uint256","internalType":"uint256"}],"outputs":[{"name":"","type":"bytes","internalType":"bytes"}],"stateMutability":"view"},{"type":"function","name":"getThreshold","inputs":[],"outputs":[{"name":"","type":"uint256","internalType":"uint256"}],"stateMutability":"view"},{"type":"function","name":"getTransactionHash","inputs":[{"name":"to","type":"address","internalType":"address"},{"name":"value","type":"uint256","internalType":"uint256"},{"name":"data","type":"bytes","internalType":"bytes"},{"name":"operation","type":"uint8","internalType":"enum Enum.Operation"},{"name":"safeTxGas","type":"uint256","internalType":"uint256"},{"name":"baseGas","type":"uint256","internalType":"uint256"},{"name":"gasPrice","type":"uint256","internalType":"uint256"},{"name":"gasToken","type":"address","internalType":"address"},{"name":"refundReceiver","type":"address","internalType":"address"},{"name":"_nonce","type":"uint256","internalType":"uint256"}],"outputs":[{"name":"txHash","type":"bytes32","internalType":"bytes32"}],"stateMutability":"view"},{"type":"function","name":"isModuleEnabled","inputs":[{"name":"module","type":"address","internalType":"address"}],"outputs":[{"name":"","type":"bool","internalType":"bool"}],"stateMutability":"view"},{"type":"function","name":"isOwner","inputs":[{"name":"owner","type":"address","internalType":"address"}],"outputs":[{"name":"","type":"bool","internalType":"bool"}],"stateMutability":"view"},{"type":"function","name":"nonce","inputs":[],"outputs":[{"name":"","type":"uint256","internalType":"uint256"}],"stateMutability":"view"},{"type":"function","name":"removeOwner","inputs":[{"name":"prevOwner","type":"address","internalType":"address"},{"name":"owner","type":"address","internalType":"address"},{"name":"_threshold","type":"uint256","internalType":"uint256"}],"outputs":[],"stateMutability":"nonpayable"},{"type":"function","name":"setFallbackHandler","inputs":[{"name":"handler","type":"address","internalType":"address"}],"outputs":[],"stateMutability":"nonpayable"},{"type":"function","name":"setGuard","inputs":[{"name":"guard","type":"address","internalType":"address"}],"outputs":[],"stateMutability":"nonpayable"},{"type":"function","name":"setModuleGuard","inputs":[{"name":"moduleGuard","type":"address","internalType":"address"}],"outputs":[],"stateMutability":"nonpayable"},{"type":"function","name":"setup","inputs":[{"name":"_owners","type":"address[]","internalType":"address[]"},{"name":"_threshold","type":"uint256","internalType":"uint256"},{"name":"to","type":"address","internalType":"address"},{"name":"data","type":"bytes","internalType":"bytes"},{"name":"fallbackHandler","type":"address","internalType":"address"},{"name":"paymentToken","type":"address","internalType":"address"},{"name":"payment","type":"uint256","internalType":"uint256"},{"name":"paymentReceiver","type":"address","internalType":"address payable"}],"outputs":[],"stateMutability":"nonpayable"},{"type":"function","name":"signedMessages","inputs":[{"name":"","type":"bytes32","internalType":"bytes32"}],"outputs":[{"name":"","type":"uint256","internalType":"uint256"}],"stateMutability":"view"},{"type":"function","name":"simulateAndRevert","inputs":[{"name":"targetContract","type":"address","internalType":"address"},{"name":"calldataPayload","type":"bytes","internalType":"bytes"}],"outputs":[],"stateMutability":"nonpayable"},{"type":"function","name":"swapOwner","inputs":[{"name":"prevOwner","type":"address","internalType":"address"},{"name":"oldOwner","type":"address","internalType":"address"},{"name":"newOwner","type":"address","internalType":"address"}],"outputs":[],"stateMutability":"nonpayable"},{"type":"event","name":"AddedOwner","inputs":[{"name":"owner","type":"address","indexed":true,"internalType":"address"}],"anonymous":false},{"type":"event","name":"ApproveHash","inputs":[{"name":"approvedHash","type":"bytes32","indexed":true,"internalType":"bytes32"},{"name":"owner","type":"address","indexed":true,"internalType":"address"}],"anonymous":false},{"type":"event","name":"ChangedFallbackHandler","inputs":[{"name":"handler","type":"address","indexed":true,"internalType":"address"}],"anonymous":false},{"type":"event","name":"ChangedGuard","inputs":[{"name":"guard","type":"address","indexed":true,"internalType":"address"}],"anonymous":false},{"type":"event","name":"ChangedModuleGuard","inputs":[{"name":"moduleGuard","type":"address","indexed":true,"internalType":"address"}],"anonymous":false},{"type":"event","name":"ChangedThreshold","inputs":[{"name":"threshold","type":"uint256","indexed":false,"internalType":"uint256"}],"anonymous":false},{"type":"event","name":"DisabledModule","inputs":[{"name":"module","type":"address","indexed":true,"internalType":"address"}],"anonymous":false},{"type":"event","name":"EnabledModule","inputs":[{"name":"module","type":"address","indexed":true,"internalType":"address"}],"anonymous":false},{"type":"event","name":"ExecutionFailure","inputs":[{"name":"txHash","type":"bytes32","indexed":true,"internalType":"bytes32"},{"name":"payment","type":"uint256","indexed":false,"internalType":"uint256"}],"anonymous":false},{"type":"event","name":"ExecutionFromModuleFailure","inputs":[{"name":"module","type":"address","indexed":true,"internalType":"address"}],"anonymous":false},{"type":"event","name":"ExecutionFromModuleSuccess","inputs":[{"name":"module","type":"address","indexed":true,"internalType":"address"}],"anonymous":false},{"type":"event","name":"ExecutionSuccess","inputs":[{"name":"txHash","type":"bytes32","indexed":true,"internalType":"bytes32"},{"name":"payment","type":"uint256","indexed":false,"internalType":"uint256"}],"anonymous":false},{"type":"event","name":"RemovedOwner","inputs":[{"name":"owner","type":"address","indexed":true,"internalType":"address"}],"anonymous":false},{"type":"event","name":"SafeReceived","inputs":[{"name":"sender","type":"address","indexed":true,"internalType":"address"},{"name":"value","type":"uint256","indexed":false,"internalType":"uint256"}],"anonymous":false},{"type":"event","name":"SafeSetup","inputs":[{"name":"initiator","type":"address","indexed":true,"internalType":"address"},{"name":"owners","type":"address[]","indexed":false,"internalType":"address[]"},{"name":"threshold","type":"uint256","indexed":false,"internalType":"uint256"},{"name":"initializer","type":"address","indexed":false,"internalType":"address"},{"name":"fallbackHandler","type":"address","indexed":false,"internalType":"address"}],"anonymous":false},{"type":"event","name":"SignMsg","inputs":[{"name":"msgHash","type":"bytes32","indexed":true,"internalType":"bytes32"}],"anonymous":false},{"type":"error","name":"StaleOraclePrice","inputs":[]}],"bytecode":{"object":"0x60c0346200009157601f6200304438819003918201601f19168301916001600160401b0383118484101762000095578084926040948552833981010312620000915780516001600160a01b0391828216820362000091576020015191821682036200009157600160045560805260a052604051612f9a9081620000aa823960805181611414015260a051816115120152f35b5f80fd5b634e487b7160e01b5f52604160045260245ffdfe608060405260043610156100a1575b3615610073573461006f577f6c9a6c4a39284e37ed1cf53d337577d14212a4870fb976a4366c693b939918d554801561006d575f8060405192368285373360601b36850152838260143601925af13d5f833e15610069573d90f35b3d90fd5b005b5f80fd5b6040513481527f3d0ce9bfc3ed7d6862dbb28b2dea94561fe714a1b4d019aa8af39730d1ad7c3d60203392a2005b5f803560e01c80630d582f1314611fc357806312fb68e014611f685780631fcac7f314611f1f5780632d9ad53d14611efc5780632f54bf6e14611ea8578063468721a714611e685780635229073f14611dfe5780635624b25b14611d7e5780635ae6bd3714611d54578063610b592514611c71578063694e80c314611c155780636a761202146116c857806371db2038146112655780637d83297414611222578063934f3a11146111c6578063a0e67e2b14611133578063affed0e014611115578063b4faba09146110b0578063b63e800d14610bb4578063cc2f845214610a13578063d4d9bdcd14610973578063d8d11f78146108f7578063e009cfde14610804578063e068df37146106fc578063e19a9dd9146105d9578063e318b52b1461049a578063e75235b81461047c578063f08a032314610421578063f698da25146103fe578063f855438b146103b0578063f8dc5dd9146102585763ffa1ad741461020c575061000e565b3461025557806003193601126102555761025160405161022b816121c9565b60058152640312e352e360dc1b60208201526040519182916020835260208301906122e1565b0390f35b80fd5b5034610255576060366003190112610255576102726120eb565b61027a612144565b9060443591610287612a2d565b600354801561039c5783905f19018060035510610383576001600160a01b039081169182158015610392575b61038d578116908185526002602052828160408720541603610388578285526002602052604085205416908452604084206001600160601b0360a01b9182825416179055818452604084209081541690557ff8d49fc529812e9a7c5c50e69c20f0dccc0db8fa95c98bc58cc9a4f1c1299eaf8380a28060045403610335575080f35b61033d612a2d565b600354811161038357801561037e576020817f610f7ff2b304ae8903c3de74c60c6ab1f7d6226b3f52c5161905bb5ad4039c9392600455604051908152a180f35b612aea565b612abd565b612b44565b612a63565b50600183146102b3565b634e487b7160e01b85526011600452602485fd5b5034610255576060366003190112610255576103ca6120eb565b604435906001600160401b0382116103fa576103ed6103f7923690600401612271565b90602435906129ea565b80f35b8280fd5b503461025557806003193601126102555760206104196129a0565b604051908152f35b50346102555760203660031901126102555761043b6120eb565b610443612a2d565b61044c81612f03565b6001600160a01b03167f5ac6c46c93c8d0e53714ba3b53db3e7c046da994313d7ed0d192028bc7c228b08280a280f35b50346102555780600319360112610255576020600454604051908152f35b5034610255576060366003190112610255576104b46120eb565b6104bc612144565b906104c5612117565b6104cd612a2d565b6001600160a01b0390811692831580156105cf575b80156105c6575b61038d578385526002602052816040862054166105c157811691821580156105b7575b61038d57811690818552600260205282816040872054160361038857828552600260205260408520541690838552604085206001600160601b0360a01b92838254161790558452604084208382825416179055818452604084209081541690557ff8d49fc529812e9a7c5c50e69c20f0dccc0db8fa95c98bc58cc9a4f1c1299eaf8380a27f9465fa0c962cc76958e6373a993326400c1c94f8be2fe3a952adfa7f60b2ea268280a280f35b506001831461050c565b612a90565b503084146104e9565b50600184146104e2565b5034610255576020366003190112610255576105f36120eb565b6105fb612a2d565b6001600160a01b0381169081151580610689575b61065c577f4a204f620c8c5ccdca3fd54d003badd85ba500436a431f0cbda4f558c93c34c8557f1151116914515bc0891ff9047a6cb32cf902546f83066499bcf8ba33d2353fa28280a280f35b60405162461bcd60e51b8152602060048201526005602482015264047533330360dc1b6044820152606490fd5b506040516301ffc9a760e01b815263736bd41d60e11b6004820152602081602481865afa9081156106f15784916106c2575b501561060f565b6106e4915060203d6020116106ea575b6106dc81836121ff565b810190612988565b5f6106bb565b503d6106d2565b6040513d86823e3d90fd5b5034610255576020366003190112610255576107166120eb565b61071e612a2d565b6001600160a01b03811690811515806107ac575b61077f577fb104e0b93118902c651344349b610029d694cfdec91c589c91ebafbcd0289947557fcd1966d6be16bc0c030cc741a06c6e0efaf8d00de2c8b6a9e11827e125de8bb88280a280f35b60405162461bcd60e51b8152602060048201526005602482015264475333303160d81b6044820152606490fd5b506040516301ffc9a760e01b8152630b0803db60e31b6004820152602081602481865afa9081156106f15784916107e5575b5015610732565b6107fe915060203d6020116106ea576106dc81836121ff565b5f6107de565b50346102555760403660031901126102555761081e6120eb565b610826612144565b61082e612a2d565b6001600160a01b0390811691821580156108ed575b6108e85781169081845260016020528281604086205416036108bb578284526001602052604084205416908352604083206001600160601b0360a01b9182825416179055818352604083209081541690557faab4fa2b463f581b2b32cb3b7e3b704b9ce37cc209b5fb4d77e593ace40542768280a280f35b60405162461bcd60e51b8152602060048201526005602482015264475331303360d81b6044820152606490fd5b612b17565b5060018314610843565b503461025557610140366003190112610255576109126120eb565b6044356001600160401b0381116103fa5761093190369060040161216e565b6064359360028510156102555760206104198686868661094f612101565b9161095861212d565b93610124359560c4359360a4359360843593602435906128f9565b50346102555760203660031901126102555733815260026020526040812054600435906001600160a01b0316156109e6573382526008602052604082208183526020526001604083205533907ff2a0eb156472d1440255b0d7c1e19cc07115d1051fe605b0dce69acfec884d9c8380a380f35b60405162461bcd60e51b8152602060048201526005602482015264047533033360dc1b6044820152606490fd5b503461025557604036600319011261025557610a2d6120eb565b602435906001906001600160a01b039081811690818414159081610ba3575b50610b76578315610b495782610a618561289f565b94869287526020908260205284604089205416955b610ae5575b505082841603610aac575b610aa19450835260405193849360408552604085019061231f565b911660208301520390f35b91505f19820193828511610ad1575080610ac9610aa195856128d1565b511691610a86565b634e487b7160e01b81526011600452602490fd5b909192948481169081151580610b3f575b80610b36575b15610b2d57509081849392610b11888a6128d1565b528852828252610b278560408a2054169661235b565b93610a76565b95939250610a7b565b50828710610afc565b5084821415610af6565b60405162461bcd60e51b815260206004820152600560248201526423a998981b60d91b6044820152606490fd5b60405162461bcd60e51b8152602060048201526005602482015264475331303560d81b6044820152606490fd5b610bad9150612749565b155f610a4c565b503461025557610100366003190112610255576001600160401b036004358181116103fa57366023820112156103fa57818160040135116103fa57366024826004013560051b830101116103fa57610c0a612117565b916064359081116110ac57610c2390369060040161216e565b92906084356001600160a01b038116900361006f5760a4356001600160a01b038116900361006f57610c53612101565b9360405160808101608082528560040135905260a081019060248601885b8760040135811061108557505060243560208201526001600160a01b03858116604083015260843516606082015233917f141df868a6331af528e38c83b7aa03edc19be66e37ae67f9285bf4f8e3c6a1a8919081900390a2610cd68460040135612888565b93610ce460405195866121ff565b6004810135855260248101602086015b6024836004013560051b84010182106110695750505060045461103c57835160243511610383576024351561037e57600184519487905b868210610f995750506001600160a01b03908116875260026020526040872080546001600160a01b0319908116600117909155600395909555602435600455610d8092919060843516610f89575b369161223b565b600180865260205260408520549092906001600160a01b0316610f5c57600180865260208190526040862080549092161790556001600160a01b038116610ee0575b505060c435610dcf575080f35b6001600160a01b038116610edb5750325b60a4356001600160a01b0316610e5c575f808080933a6001108214610e5357610e0d60015b60c435612c15565b906001600160a01b03165af13d15610e4e573d610e2981612220565b90610e3760405192836121ff565b81525f60203d92013e5b15610e495780f35b612b9e565b610e41565b610e0d3a610e05565b5f602091610e6b60c435612bf9565b60405163a9059cbb60e01b8582019081526001600160a01b039093166024820152604480820192909252908152610ea1816121ae565b51908260a43561270f195a01f13d8015610ed557602014610ec957505f5b6103f7575b612b71565b5f511590151715610ebf565b50610ebf565b610de0565b803b15610f2f5781515f9283926020909101905f19f415610f02575f80610dc2565b60405162461bcd60e51b8152602060048201526005602482015264047533030360dc1b6044820152606490fd5b60405162461bcd60e51b815260206004820152600560248201526423a998181960d91b6044820152606490fd5b60405162461bcd60e51b8152602060048201526005602482015264047533130360dc1b6044820152606490fd5b610f94608435612f03565b610d79565b90916001600160a01b03610fad84846128d1565b511680158015611032575b8015611029575b8015611017575b61038d57808a526002602081905260408b20546001600160a01b03166105c1576001600160a01b039092168a526020919091526040892080546001600160a01b031916821790559160010190610d2b565b506001600160a01b0382168114610fc6565b50308114610fbf565b5060018114610fb8565b60405162461bcd60e51b8152602060048201526005602482015264047533230360dc1b6044820152606490fd5b6020806024926110788561215a565b8152019201919050610cf4565b90926001906001600160a01b0361109b8661215a565b168152602080910194019101610c71565b8380fd5b503461025557604036600319011261025557806110cb6120eb565b602435906001600160401b038211611111576110ec83923690600401612271565b90602082519201905af4906040519182523d60208301523d90604083013e60403d0190fd5b5050fd5b50346102555780600319360112610255576020600554604051908152f35b503461025557806003193601126102555761114f60035461289f565b90806001916001815260026020600260205260018060a01b03938585604086205416905b61118e575b604051602080825281906102519082018b61231f565b85168681146111c157908187926111a5838b6128d1565b5285528383526111bb866040872054169161235b565b91611173565b611178565b5034610255576060366003190112610255576001600160401b036024358181116103fa576111f890369060040161216e565b505060443590811161121e576112156103f7913690600401612271565b600435336129ea565b5080fd5b5034610255576040366003190112610255576020906040906001600160a01b0361124a6120eb565b16815260088352818120602435825283522054604051908152f35b50346102555736600319016101e0811261121e5761010080911261121e576040519081016001600160401b0390828110828211176116b4576040526004358252602435602083015260443560408301526064356060830152608435608083015260a43560a083015260c43560c083015260e43560e0830152610104359081116103fa576112f690369060040161216e565b90916060366101231901126110ac576060366101831901126110ac57610124356001600160a01b038116810361006f57604051633fabe5a360e21b81529060a090829060049082906001600160a01b03165afa8015611635578591869161168a575b506113679061016435906127e7565b42116116405760c0820151611380916101443591612e6a565b60c0820152610184356001600160a01b038116939084900361006f5760a060049460405195868092633fabe5a360e21b82525afa80156116355785948691611652575b506113d342916101c435906127e7565b10611640576113ec859460c08401516101a43590612e6a565b60c083015260405163802b2ef160e01b815261140b600482018461283d565b602081610104817f00000000000000000000000000000000000000000000000000000000000000006001600160a01b03165afa908115611635578591611600575b506040516020810191825260208152611464816121c9565b51902060405160208101917f60b3cbf8b4a223d68d641b3b6ddf9a298e7f33710cf3d3a9d1146b5a6150fbca83526040820152604081526114a4816121e4565b51902060405163f698da2560e01b815290602082600481305afa9182156115f55786926115be575b50604051906020820192601960f81b8452600160f81b602184015260228301526042820152604281526114fe816121ae565b5190208452600760205260408420600190557f00000000000000000000000000000000000000000000000000000000000000006001600160a01b0316803b156115ba57849283602061157d6115699560405198899788966337f2cf8d60e21b8852600488019061283d565b61014061010487015261014486019161277a565b828482039160031983016101248701525201925af180156115af5761159f5750f35b6115a89061219b565b6102555780f35b6040513d84823e3d90fd5b8480fd5b955090506020853d6020116115ed575b816115db602093836121ff565b8101031261006f57859451905f6114cc565b3d91506115ce565b6040513d88823e3d90fd5b9450506020843d60201161162d575b8161161c602093836121ff565b8101031261006f578493515f61144c565b3d915061160f565b6040513d87823e3d90fd5b604051631510fe5b60e31b8152600490fd5b905061167791945060a03d60a011611683575b61166f81836121ff565b81019061280b565b5095925050935f6113c3565b503d611665565b61136792506116a8915060a03d60a0116116835761166f81836121ff565b50939250509190611358565b634e487b7160e01b5f52604160045260245ffd5b5061014036600319011261006f576116de6120eb565b6001600160401b0360443581811161006f576116fe90369060040161216e565b9190926002606435101561006f57611714612101565b61171c61212d565b926101243590811161006f57611736903690600401612271565b9161176b6005546117468161235b565b6005556001600160a01b0386168460c43560a4356084356064358c8e6024358b6128f9565b946117778487336129ea565b7f4a204f620c8c5ccdca3fd54d003badd85ba500436a431f0cbda4f558c93c34c8546001600160a01b03169384611b40575b505a6109c46084350160843511611b2c576109c460843501603f60843560061b0410155f14611b1f57603f60843560061b04905b6101f48201809211611acc5710611af2575a9660c435611ae0575a6109c3198101908111611acc57916118165f9492859492369161223b565b916001606435148414611ab95760208351930191f4925b5a91868311611ab5578683810311611aa1578415968780611a97575b80611a8d575b611a82578693899360c43561193b575b50505050835f1461190b5760207f442e715f626346e8c54381002da614f62bee8d27386535b2521ec8540898556e91604051908152a25b806118a8575b60208460405190158152f35b908185923b156103fa57604051631264e26d60e31b8152600481019490945290151560248401528290604490829084905af18015611900576118ec575b808061189c565b6118f6839161219b565b61121e57816118e5565b6040513d85823e3d90fd5b60207f23428b18acfb3ea64b08dc0c1d296ea9c09702c09083ca5272e64d115b687d2391604051908152a2611896565b929450909250906001600160a01b038116611a7c575032925b6001600160a01b0381166119e8575061197160a4358284036127e7565b9103811061006f575f808061199581943a60c4351083146119e15760c43590612c15565b9485906001600160a01b03165af13d156119dc573d6119b381612220565b906119c160405192836121ff565b81525f60203d92013e5b15610e495783905b5f80808061185f565b6119cb565b3a90612c15565b91906119f860a4358284036127e7565b9103811061006f57602091611a115f9260c43590612c15565b93826040518581019263a9059cbb60e01b845260018060a01b0316602482015286604482015260448152611a44816121ae565b519261270f195a01f13d8015611a7657602014611a6a57505f5b15610ec45783906119d3565b5f511590151715611a5e565b50611a5e565b92611954565b6040513d8a823e3d90fd5b5060c4351561184f565b5060843515611849565b634e487b7160e01b5f52601160045260245ffd5b8780fd5b906020835193019160243591f19261182d565b634e487b7160e01b8a52601160045260248afd5b915f9291611816849360843592610d79565b60405162461bcd60e51b8152602060048201526005602482015264047533031360dc1b6044820152606490fd5b6109c460843501906117dd565b634e487b7160e01b89526011600452602489fd5b843b1561006f57604051633af85da960e11b81526001600160a01b038416600482015260248035908201526101606044820152905f9082908190611bdf90611b8d6101648401888f61277a565b90611b9d6064850160643561279a565b608480359085015260a480359085015260c48035908501526001600160a01b038a811660e48601528c16610104850152838203600319016101248501526122e1565b33610144830152038183895af18015611c0a57156117a957611c0291985061219b565b5f965f6117a9565b6040513d5f823e3d90fd5b3461006f57602036600319011261006f57600435611c31612a2d565b600354811161038357801561037e576020817f610f7ff2b304ae8903c3de74c60c6ab1f7d6226b3f52c5161905bb5ad4039c9392600455604051908152a1005b3461006f57602036600319011261006f57611c8a6120eb565b611c92612a2d565b6001600160a01b039081169081158015611d4a575b6108e857815f5260016020528060405f205416611d1d5760015f52600160205260405f205416815f5260405f206001600160601b0360a01b918282541617905560015f528160405f20918254161790557fecdf3a3effea5783a3c4c2140e677577666428d44ed9d474a0b3a4c9943f84405f80a2005b60405162461bcd60e51b815260206004820152600560248201526423a998981960d91b6044820152606490fd5b5060018214611ca7565b3461006f57602036600319011261006f576004355f526007602052602060405f2054604051908152f35b3461006f57604036600319011261006f5760043560243560058160051b92611dbe611da885612220565b94611db660405196876121ff565b808652612220565b60209190601f190136868401375f5b848110611dea5760405160208082528190610251908201896122e1565b8181015481851b8701840152600101611dcd565b3461006f57611e4a611e2c611e123661228f565b90611e24828285879997989698612c39565b959096612d7a565b80926040519460203d8701016040523d86523d5f602088013e612dad565b610251604051928392151583526040602084015260408301906122e1565b3461006f576020611e96611e9e611e7e3661228f565b90611e8e82828587999699612c39565b969094612d7a565b928391612dad565b6040519015158152f35b3461006f57602036600319011261006f5760206001600160a01b0380611ecc6120eb565b169060018214918215611ee5575b505060405190158152f35b9091505f526002825260405f205416158280611eda565b3461006f57602036600319011261006f576020611e9e611f1a6120eb565b612749565b3461006f57608036600319011261006f57611f386120eb565b604435906001600160401b03821161006f57611f5b61006d923690600401612271565b6064359160243590612369565b3461006f57608036600319011261006f576001600160401b0360243581811161006f57611f9990369060040161216e565b505060443590811161006f57611fb661006d913690600401612271565b6064359060043533612369565b3461006f57604036600319011261006f57611fdc6120eb565b60243590611fe8612a2d565b6001600160a01b0390811690811580156120e1575b80156120d8575b61038d57815f5260026020528060405f2054166105c15760015f52600260205260405f205416815f5260405f206001600160601b0360a01b918282541617905560015f528160405f209182541617905561205f60035461235b565b90816003557f9465fa0c962cc76958e6373a993326400c1c94f8be2fe3a952adfa7f60b2ea265f80a2816004540361209357005b61209b612a2d565b811161038357801561037e576020817f610f7ff2b304ae8903c3de74c60c6ab1f7d6226b3f52c5161905bb5ad4039c9392600455604051908152a1005b50308214612004565b5060018214611ffd565b600435906001600160a01b038216820361006f57565b60e435906001600160a01b038216820361006f57565b604435906001600160a01b038216820361006f57565b61010435906001600160a01b038216820361006f57565b602435906001600160a01b038216820361006f57565b35906001600160a01b038216820361006f57565b9181601f8401121561006f578235916001600160401b03831161006f576020838186019501011161006f57565b6001600160401b0381116116b457604052565b608081019081106001600160401b038211176116b457604052565b604081019081106001600160401b038211176116b457604052565b606081019081106001600160401b038211176116b457604052565b90601f801991011681019081106001600160401b038211176116b457604052565b6001600160401b0381116116b457601f01601f191660200190565b92919261224782612220565b9161225560405193846121ff565b82948184528183011161006f578281602093845f960137010152565b9080601f8301121561006f5781602061228c9335910161223b565b90565b608060031982011261006f576004356001600160a01b038116810361006f579160243591604435906001600160401b03821161006f576122d191600401612271565b90606435600281101561006f5790565b91908251928382525f5b84811061230b575050825f602080949584010152601f8019910116010190565b6020818301810151848301820152016122eb565b9081518082526020808093019301915f5b82811061233e575050505090565b83516001600160a01b031685529381019392810192600101612330565b5f198114611aa15760010190565b9290825161237683612bcb565b1161271c575f805b83821061238d57505050505050565b8160410285019060209081830151906040916060838601519501515f1a80155f146125e357506001600160a01b0316936123c688612bcb565b81106125b7576123d5816127d9565b81811061006f5789511061258b5783818a01019081516123f4826127d9565b91821061006f5761240590826127e7565b90811061006f5789511061255f578251630b135d3f60e11b918282526004926044928a858201528781806124436024968b88840152888301906122e1565b03818c5afa908115612555575f91612517575b506001600160e01b031916036124ed575050505b6001600160a01b03908116848216908111801592906124d6575b5081156124cb575b5061249e57505060019091019061237e565b5162461bcd60e51b81526004810191909152600560248201526423a998191b60d91b604482015260649150fd5b60019150145f61248c565b908092505f5260028452825f20541615905f612484565b845162461bcd60e51b81529283018690526005908301526411d4cc0c8d60da1b9082015260649150fd5b90508781813d831161254e575b61252e81836121ff565b8101031261006f57516001600160e01b03198116810361006f575f612456565b503d612524565b87513d5f823e3d90fd5b825162461bcd60e51b8152600481018590526005602482015264475330323360d81b6044820152606490fd5b825162461bcd60e51b815260048101859052600560248201526423a998191960d91b6044820152606490fd5b825162461bcd60e51b8152600481018590526005602482015264475330323160d81b6044820152606490fd5b90946001808303612653575050506001600160a01b0393841693891684141580612639575b1561246a57815162461bcd60e51b8152600481018490526005602482015264475330323560d81b6044820152606490fd5b50835f5260088352815f20865f528352815f205415612608565b9091929585601e85115f146126f057508451868101907f19457468657265756d205369676e6564204d6573736167653a0a3332000000008252603c8b81830152815261269e816121e4565b519020936003198101908111611aa157855194855260ff1660208501526040840152606083019190915283915f919080608081015b84805203915afa156126e7575f519261246a565b513d5f823e3d90fd5b936126d35f9487519384938d859094939260ff6060936080840197845216602083015260408201520152565b60405162461bcd60e51b8152602060048201526005602482015264047533032360dc1b6044820152606490fd5b6001600160a01b03908116600181141591908261276557505090565b9091505f52600160205260405f205416151590565b908060209392818452848401375f828201840152601f01601f1916010190565b9060028210156127a75752565b634e487b7160e01b5f52602160045260245ffd5b81156127c5570490565b634e487b7160e01b5f52601260045260245ffd5b9060208201809211611aa157565b91908201809211611aa157565b519069ffffffffffffffffffff8216820361006f57565b908160a091031261006f5761281f816127f4565b9160208201519160408101519161228c6080606084015193016127f4565b60e08091805184526020810151602085015260408101516040850152606081015160608501526080810151608085015260a081015160a085015260c081015160c08501520151910152565b6001600160401b0381116116b45760051b60200190565b906128a982612888565b6128b660405191826121ff565b82815280926128c7601f1991612888565b0190602036910137565b80518210156128e55760209160051b010190565b634e487b7160e01b5f52603260045260245ffd5b95601e999397919560429b959993996129106129a0565b99806040519c8d378b207fbb8310d486368db6bd6f849402fdd73ad53d316b5a4b2644ad6efe0f941286d88c5260208c01998a5260408c0198895260608c015260808b015260a08a015260c089015260e088015261010087015261012086015261014085015261016084209052611901835252012090565b9081602091031261006f5751801515810361006f5790565b60405160208101907f47e79534a245952e8b16893a336b85a3d9ea9fa8c573f3d803afb92a794692188252466040820152306060820152606081526129e4816121ae565b51902090565b91600454918215612a00576129fe93612369565b565b60405162461bcd60e51b8152602060048201526005602482015264475330303160d81b6044820152606490fd5b303303612a3657565b60405162461bcd60e51b8152602060048201526005602482015264475330333160d81b6044820152606490fd5b60405162461bcd60e51b8152602060048201526005602482015264475332303360d81b6044820152606490fd5b60405162461bcd60e51b815260206004820152600560248201526411d4cc8c0d60da1b6044820152606490fd5b60405162461bcd60e51b8152602060048201526005602482015264475332303160d81b6044820152606490fd5b60405162461bcd60e51b815260206004820152600560248201526423a999181960d91b6044820152606490fd5b60405162461bcd60e51b8152602060048201526005602482015264475331303160d81b6044820152606490fd5b60405162461bcd60e51b8152602060048201526005602482015264475332303560d81b6044820152606490fd5b60405162461bcd60e51b815260206004820152600560248201526423a998189960d91b6044820152606490fd5b60405162461bcd60e51b8152602060048201526005602482015264475330313160d81b6044820152606490fd5b8015612bf4576041810290808204604103611aa157612bec604191836127bb565b0361006f5790565b505f90565b8015612bf457808004600103611aa1576001612bec82806127bb565b908115612c3357808202918083048203611aa157612bec90836127bb565b50505f90565b9391905f937fb104e0b93118902c651344349b610029d694cfdec91c589c91ebafbcd02899475495600133148015612d5b575b612d2e576001600160a01b038781169290919083612c8d575b505050505050565b602095969750905f91612cd7612ccc604051998a988997889663394614b960e11b8852166004870152602486015260a0604486015260a48501906122e1565b91606484019061279a565b33608483015203925af1908115611c0a575f91612cfc575b50905f8080808080612c85565b90506020813d602011612d26575b81612d17602093836121ff565b8101031261006f57515f612cef565b3d9150612d0a565b60405162461bcd60e51b815260206004820152600560248201526411d4cc4c0d60da1b6044820152606490fd5b50335f908152600160205260409020546001600160a01b031615612c6c565b9291909260028310156127a7575f938493600103612da05750602082519201908319f490565b602083519301918419f190565b5f9291906001600160a01b031680612e15575b505015612dee577f6895c13664aa4f67288b25d7a21d7aaa34916e355fb9b6fae0a139a9085becb8339180a2565b7facd2c8702804128fdb0db2bb49f6d127dd0181c13fd45dbfe16de0930e2bd375339180a2565b803b1561006f576040516315661bd560e11b8152600481019290925282151560248301525f908290604490829084905af18015611c0a57612e57575b80612dc0565b612e6291925061219b565b5f905f612e51565b90915f198383099280830292838086109503948086039514612ef65784831115612ede5790829109815f038216809204600280826003021880830282030280830282030280830282030280830282030280830282030280920290030293600183805f03040190848311900302920304170290565b82634e487b715f52156003026011186020526024601cfd5b50509061228c92506127bb565b6001600160a01b0381163014612f37577f6c9a6c4a39284e37ed1cf53d337577d14212a4870fb976a4366c693b939918d555565b60405162461bcd60e51b8152602060048201526005602482015264047533430360dc1b6044820152606490fdfea2646970667358221220b491fe68cfb9b5268559e80a7e8e3f9eb820b29896e0cdb3198353119d43c16c64736f6c63430008170033","linkReferences":{}},"methodIdentifiers":{"VERSION()":"ffa1ad74","addOwnerWithThreshold(address,uint256)":"0d582f13","approveHash(bytes32)":"d4d9bdcd","approvedHashes(address,bytes32)":"7d832974","buildAndSignOrder((uint256,uint256,uint256,uint256,uint256,uint256,uint256,uint256),bytes,(address,uint256,uint256),(address,uint256,uint256))":"71db2038","changeThreshold(uint256)":"694e80c3","checkNSignatures(address,bytes32,bytes,uint256)":"1fcac7f3","checkNSignatures(bytes32,bytes,bytes,uint256)":"12fb68e0","checkSignatures(address,bytes32,bytes)":"f855438b","checkSignatures(bytes32,bytes,bytes)":"934f3a11","disableModule(address,address)":"e009cfde","domainSeparator()":"f698da25","enableModule(address)":"610b5925","execTransaction(address,uint256,bytes,uint8,uint256,uint256,uint256,address,address,bytes)":"6a761202","execTransactionFromModule(address,uint256,bytes,uint8)":"468721a7","execTransactionFromModuleReturnData(address,uint256,bytes,uint8)":"5229073f","getModulesPaginated(address,uint256)":"cc2f8452","getOwners()":"a0e67e2b","getStorageAt(uint256,uint256)":"5624b25b","getThreshold()":"e75235b8","getTransactionHash(address,uint256,bytes,uint8,uint256,uint256,uint256,address,address,uint256)":"d8d11f78","isModuleEnabled(address)":"2d9ad53d","isOwner(address)":"2f54bf6e","nonce()":"affed0e0","removeOwner(address,address,uint256)":"f8dc5dd9","setFallbackHandler(address)":"f08a0323","setGuard(address)":"e19a9dd9","setModuleGuard(address)":"e068df37","setup(address[],uint256,address,bytes,address,address,uint256,address)":"b63e800d","signedMessages(bytes32)":"5ae6bd37","simulateAndRevert(address,bytes)":"b4faba09","swapOwner(address,address,address)":"e318b52b"},"id":79}